S01200004C454420546F67676C652E73726563BB
S1130000FDC0000005C1000003C1000001C10000E3
S1130010FFC00000FDC00000FBC00000F9C00000EC
S1130020F7C00000F5C00000F3C00000F1C00000FC
S1130030EFC00000EDC00000EBC00000E9C000000C
S1130040E7C00000E5C00000E3C00000E1C000001C
S1130050DFC00000DDC00000DBC00000D9C000002C
S1130060D7C00000D5C00000D3C00000D1C000003C
S1130070CFC00000CDC00000CBC00000C9C000004C
S1130080C7C00000C5C00000C3C00000C1C000005C
S1130090BFC00000BDC00000BBC00000B9C000006C
S11300A0B7C00000B5C00000B3C00000B1C000007C
S11300B0AFC00000ADC00000ABC00000A9C000008C
S11300C0A7C00000A5C00000A3C00000A1C000009C
S11300D09FC000009DC000009BC0000099C00000AC
S11300E097C0000095C0000093C0000091C00000BC
S11300F08FC000008DC000008BC0000089C00000CC
S113010087C0000085C0000083C0000081C00000DB
S11301107FC000007DC000007BC0000079C00000EB
S113012077C0000075C0000073C0000071C00000FB
S11301306FC000006DC000006BC0000069C000000B
S113014067C0000065C0000063C0000061C000001B
S11301505FC000005DC000005BC0000059C000002B
S113016057C0000055C0000053C0000051C000003B
S11301704FC000004DC000004BC0000049C000004B
S113018047C0000045C0000043C0000041C000005B
S11301903FC000003DC000003BC0000039C000006B
S11301A05AC0000035C0000033C0000031C0000058
S11301B02FC000002DC000002BC0000029C000008B
S11301C027C0000025C0000023C0000021C000009B
S11301D01FC000001DC000001BC0000019C00000AB
S11301E017C0000015C0000013C0000011C00000BB
S11301F00FC000000DC000000BC0000011241FBE82
S1130200CFEFCDBFDFE5DEBF00E00CBF59D060C04B
S1130210F7CE04C061507109810991096115710516
S113022081059105B9F70895F894E0EAF6E0808134
S11302308D7F80838285826082878AE3818B81E0DF
S11302408187E0EAF0E08281876082838FEF809388
S1130250E107789408951F920F920FB60F9211241C
S11302600BB60F922F933F934F935F936F937F93AC
S11302708F939F93AF93BF93EF93FF9366E372E8DB
S113028080E090E0C6DFE0EEF7E0948181E089272A
S11302908483948182E089278483FF91EF91BF91C5
S11302A0AF919F918F917F916F915F914F913F910A
S11302B02F910F900BBE0F900FBE0F901F901895AB
S11302C0B3DFE0EEF7E0948182E089278483FFCFF7
S10702D0F894FFCFCC
S9030000FC
