S0180000476363426F61726450726F6A656374312E737265630F
S113000004C1000023C1000021C100001FC1000081
S11300101DC100001BC1000019C1000017C1000070
S113002015C1000013C1000011C100000FC1000080
S11300300DC100000BC1000030C100005BC1000015
S113004086C10000B1C10000DCC1000007C200008D
S113005032C200005DC2000088C20000B3C20000CA
S1130060F5C00000F3C00000F1C00000EFC00000C4
S1130070EDC00000EBC00000E9C00000E7C00000D4
S1130080E5C00000E3C00000E1C00000DFC00000E4
S1130090DDC00000DBC00000D9C00000D7C00000F4
S11300A0D5C00000D3C00000D1C00000CFC0000004
S11300B0CDC00000CBC00000C9C0000072C4000065
S11300C09DC40000C8C40000F3C400001EC50000A5
S11300D049C5000074C500009FC50000CAC50000E2
S11300E0F5C50000B3C00000B1C00000AFC00000FF
S11300F0ADC00000ABC00000A9C00000A7C0000054
S1130100A5C00000A3C00000A1C000009FC0000063
S11301109DC000009BC0000099C0000097C0000073
S113012095C0000093C0000091C000008FC0000083
S11301308DC0000074C200009FC20000CAC200004B
S1130140F5C2000020C300004BC3000076C30000CA
S1130150A1C30000CCC30000F7C3000077C00000B7
S113016075C0000073C0000071C000006FC00000C3
S11301706DC000006BC0000069C0000067C00000D3
S113018065C0000063C0000061C000005FC00000E3
S11301905DC000005BC0000059C0000057C00000F3
S11301A055C0000053C0000051C000004FC0000003
S11301B0BAC50000E5C5000010C600003BC600003B
S11301C066C6000091C6000041C000003FC00000A8
S11301D03DC000003BC0000039C0000037C0000033
S11301E035C0000033C0000031C000002FC0000043
S11301F02DC000002BC0000029C000008C089F08FF
S1130200B208C508D808EB08FE0811241FBECFEFBA
S1130210CDBFDFE5DEBF00E00CBF10E2A0E0B0E23E
S1130220E4EDF5E100E00BBF02C007900D92A030B1
S1130230B107D9F720E2A0E0B0E201C01D92AE34CC
S1130240B207E1F70E945F0A0C94E80AD9CE8FEF57
S11302508093700080937100809372008093730088
S11302608093740080937500809376000895CF93F3
S1130270DF931F92CDB7DEB79FB79983F894998126
S1130280E82FF0E0E059FF4F609580816823608398
S11302909FBF0F90DF91CF9108951F920F920FB6D9
S11302A00F9211240BB60F922F933F934F935F93AA
S11302B06F937F938F939F93AF93BF93EF93FF932A
S11302C0E0914620F0914720309709F01995FF916D
S11302D0EF91BF91AF919F918F917F916F915F91BA
S11302E04F913F912F910F900BBE0F900FBE0F9027
S11302F01F9018951F920F920FB60F9211240BB6F0
S11303000F922F933F934F935F936F937F938F93AA
S11303109F93AF93BF93EF93FF93E0914420F091A9
S11303204520309709F01995FF91EF91BF91AF9156
S11303309F918F917F916F915F914F913F912F91F9
S11303400F900BBE0F900FBE0F901F9018951F9229
S11303500F920FB60F9211240BB60F922F933F9367
S11303604F935F936F937F938F939F93AF93BF93B9
S1130370EF93FF93E0914220F0914320309709F0EE
S11303801995FF91EF91BF91AF919F918F917F91BB
S11303906F915F914F913F912F910F900BBE0F90F2
S11303A00FBE0F901F9018951F920F920FB60F92C9
S11303B011240BB60F922F933F934F935F936F9338
S11303C07F938F939F93AF93BF93EF93FF93E091AA
S11303D04020F0914120309709F01995FF91EF9159
S11303E0BF91AF919F918F917F916F915F914F9149
S11303F03F912F910F900BBE0F900FBE0F901F9047
S113040018951F920F920FB60F9211240BB60F92EC
S11304102F933F934F935F936F937F938F939F9308
S1130420AF93BF93EF93FF93E0913E20F0913F2071
S1130430309709F01995FF91EF91BF91AF919F917A
S11304408F917F916F915F914F913F912F910F9079
S11304500BBE0F900FBE0F901F9018951F920F9216
S11304600FB60F9211240BB60F922F933F934F9315
S11304705F936F937F938F939F93AF93BF93EF9308
S1130480FF93E0913C20F0913D20309709F01995BD
S1130490FF91EF91BF91AF919F918F917F916F9158
S11304A05F914F913F912F910F900BBE0F900FBE14
S11304B00F901F9018951F920F920FB60F92112450
S11304C00BB60F922F933F934F935F936F937F934A
S11304D08F939F93AF93BF93EF93FF93E0913A2051
S11304E0F0913B20309709F01995FF91EF91BF915E
S11304F0AF919F918F917F916F915F914F913F91B8
S11305002F910F900BBE0F900FBE0F901F90189558
S11305101F920F920FB60F9211240BB60F922F93C6
S11305203F934F935F936F937F938F939F93AF9377
S1130530BF93EF93FF93E0913820F09139203097E7
S113054009F01995FF91EF91BF91AF919F918F9110
S11305507F916F915F914F913F912F910F900BBEBF
S11305600F900FBE0F901F9018951F920F920FB609
S11305700F9211240BB60F922F933F934F935F93D7
S11305806F937F938F939F93AF93BF93EF93FF9357
S1130590E0913620F0913720309709F01995FF91BA
S11305A0EF91BF91AF919F918F917F916F915F91E7
S11305B04F913F912F910F900BBE0F900FBE0F9054
S11305C01F9018951F920F920FB60F9211240BB61D
S11305D00F922F933F934F935F936F937F938F93D8
S11305E09F93AF93BF93EF93FF93E0913420F091E7
S11305F03520309709F01995FF91EF91BF91AF9194
S11306009F918F917F916F915F914F913F912F9126
S11306100F900BBE0F900FBE0F901F9018951F9256
S11306200F920FB60F9211240BB60F922F933F9394
S11306304F935F936F937F938F939F93AF93BF93E6
S1130640EF93FF93E0913220F0913320309709F03B
S11306501995FF91EF91BF91AF919F918F917F91E8
S11306606F915F914F913F912F910F900BBE0F901F
S11306700FBE0F901F9018951F920F920FB60F92F6
S113068011240BB60F922F933F934F935F936F9365
S11306907F938F939F93AF93BF93EF93FF93E091D7
S11306A03020F0913120309709F01995FF91EF91A6
S11306B0BF91AF919F918F917F916F915F914F9176
S11306C03F912F910F900BBE0F900FBE0F901F9074
S11306D018951F920F920FB60F9211240BB60F921A
S11306E02F933F934F935F936F937F938F939F9336
S11306F0AF93BF93EF93FF93E0912E20F0912F20BF
S1130700309709F01995FF91EF91BF91AF919F91A7
S11307108F917F916F915F914F913F912F910F90A6
S11307200BBE0F900FBE0F901F9018951F920F9243
S11307300FB60F9211240BB60F922F933F934F9342
S11307405F936F937F938F939F93AF93BF93EF9335
S1130750FF93E0912C20F0912D20309709F019950A
S1130760FF91EF91BF91AF919F918F917F916F9185
S11307705F914F913F912F910F900BBE0F900FBE41
S11307800F901F9018951F920F920FB60F9211247D
S11307900BB60F922F933F934F935F936F937F9377
S11307A08F939F93AF93BF93EF93FF93E0912A208E
S11307B0F0912B20309709F01995FF91EF91BF919B
S11307C0AF919F918F917F916F915F914F913F91E5
S11307D02F910F900BBE0F900FBE0F901F90189586
S11307E01F920F920FB60F9211240BB60F922F93F4
S11307F03F934F935F936F937F938F939F93AF93A5
S1130800BF93EF93FF93E0912820F0912920309734
S113081009F01995FF91EF91BF91AF919F918F913D
S11308207F916F915F914F913F912F910F900BBEEC
S11308300F900FBE0F901F9018951F920F920FB636
S11308400F9211240BB60F922F933F934F935F9304
S11308506F937F938F939F93AF93BF93EF93FF9384
S1130860E0912620F0912720309709F01995FF9107
S1130870EF91BF91AF919F918F917F916F915F9114
S11308804F913F912F910F900BBE0F900FBE0F9081
S11308901F9018951F920F920FB60F9211240BB64A
S11308A00F922F933F934F935F936F937F938F9305
S11308B09F93AF93BF93EF93FF93E0912420F09124
S11308C02520309709F01995FF91EF91BF91AF91D1
S11308D09F918F917F916F915F914F913F912F9154
S11308E00F900BBE0F900FBE0F901F9018951F9284
S11308F00F920FB60F9211240BB60F922F933F93C2
S11309004F935F936F937F938F939F93AF93BF9313
S1130910EF93FF93E0912220F0912320309709F088
S11309201995FF91EF91BF91AF919F918F917F9115
S11309306F915F914F913F912F910F900BBE0F904C
S11309400FBE0F901F9018951F920F920FB60F9223
S113095011240BB60F922F933F934F935F936F9392
S11309607F938F939F93AF93BF93EF93FF93E09104
S11309702020F0912120309709F01995FF91EF91F3
S1130980BF91AF919F918F917F916F915F914F91A3
S11309903F912F910F900BBE0F900FBE0F901F90A1
S11309A018951F920F920FB60F9211240BB60F9247
S11309B02F933F934F935F936F937F938F939F9363
S11309C0AF93BF93EF93FF93E0911E20F0911F200C
S11309D0309709F01995FF91EF91BF91AF919F91D5
S11309E08F917F916F915F914F913F912F910F90D4
S11309F00BBE0F900FBE0F901F9018951F920F9271
S1130A000FB60F9211240BB60F922F933F934F936F
S1130A105F936F937F938F939F93AF93BF93EF9362
S1130A20FF93E0911C20F0911D20309709F0199557
S1130A30FF91EF91BF91AF919F918F917F916F91B2
S1130A405F914F913F912F910F900BBE0F900FBE6E
S1130A500F901F9018951F920F920FB60F921124AA
S1130A600BB60F922F933F934F935F936F937F93A4
S1130A708F939F93AF93BF93EF93FF93E0911A20CB
S1130A80F0911B20309709F01995FF91EF91BF91D8
S1130A90AF919F918F917F916F915F914F913F9112
S1130AA02F910F900BBE0F900FBE0F901F901895B3
S1130AB01F920F920FB60F9211240BB60F922F9321
S1130AC03F934F935F936F937F938F939F93AF93D2
S1130AD0BF93EF93FF93E0911820F0911920309782
S1130AE009F01995FF91EF91BF91AF919F918F916B
S1130AF07F916F915F914F913F912F910F900BBE1A
S1130B000F900FBE0F901F9018951F920F920FB663
S1130B100F9211240BB60F922F933F934F935F9331
S1130B206F937F938F939F93AF93BF93EF93FF93B1
S1130B30E0911620F0911720309709F01995FF9154
S1130B40EF91BF91AF919F918F917F916F915F9141
S1130B504F913F912F910F900BBE0F900FBE0F90AE
S1130B601F9018951F920F920FB60F9211240BB677
S1130B700F922F933F934F935F936F937F938F9332
S1130B809F93AF93BF93EF93FF93E0911420F09161
S1130B901520309709F01995FF91EF91BF91AF910E
S1130BA09F918F917F916F915F914F913F912F9181
S1130BB00F900BBE0F900FBE0F901F9018951F92B1
S1130BC00F920FB60F9211240BB60F922F933F93EF
S1130BD04F935F936F937F938F939F93AF93BF9341
S1130BE0EF93FF93E0911220F0911320309709F0D6
S1130BF01995FF91EF91BF91AF919F918F917F9143
S1130C006F915F914F913F912F910F900BBE0F9079
S1130C100FBE0F901F9018951F920F920FB60F9250
S1130C2011240BB60F922F933F934F935F936F93BF
S1130C307F938F939F93AF93BF93EF93FF93E09131
S1130C401020F0911120309709F01995FF91EF9140
S1130C50BF91AF919F918F917F916F915F914F91D0
S1130C603F912F910F900BBE0F900FBE0F901F90CE
S1130C7018951F920F920FB60F9211240BB60F9274
S1130C802F933F934F935F936F937F938F939F9390
S1130C90AF93BF93EF93FF93E0910E20F0910F2059
S1130CA0309709F01995FF91EF91BF91AF919F9102
S1130CB08F917F916F915F914F913F912F910F9001
S1130CC00BBE0F900FBE0F901F9018951F920F929E
S1130CD00FB60F9211240BB60F922F933F934F939D
S1130CE05F936F937F938F939F93AF93BF93EF9390
S1130CF0FF93E0910C20F0910D20309709F01995A5
S1130D00FF91EF91BF91AF919F918F917F916F91DF
S1130D105F914F913F912F910F900BBE0F900FBE9B
S1130D200F901F9018951F920F920FB60F921124D7
S1130D300BB60F922F933F934F935F936F937F93D1
S1130D408F939F93AF93BF93EF93FF93E0910A2008
S1130D50F0910B20309709F01995FF91EF91BF9115
S1130D60AF919F918F917F916F915F914F913F913F
S1130D702F910F900BBE0F900FBE0F901F901895E0
S1130D801F920F920FB60F9211240BB60F922F934E
S1130D903F934F935F936F937F938F939F93AF93FF
S1130DA0BF93EF93FF93E0910820F09109203097CF
S1130DB009F01995FF91EF91BF91AF919F918F9198
S1130DC07F916F915F914F913F912F910F900BBE47
S1130DD00F900FBE0F901F9018951F920F920FB691
S1130DE00F9211240BB60F922F933F934F935F935F
S1130DF06F937F938F939F93AF93BF93EF93FF93DF
S1130E00E0910620F0910720309709F01995FF91A1
S1130E10EF91BF91AF919F918F917F916F915F916E
S1130E204F913F912F910F900BBE0F900FBE0F90DB
S1130E301F9018951F920F920FB60F9211240BB6A4
S1130E400F922F933F934F935F936F937F938F935F
S1130E509F93AF93BF93EF93FF93E0910420F0919E
S1130E600520309709F01995FF91EF91BF91AF914B
S1130E709F918F917F916F915F914F913F912F91AE
S1130E800F900BBE0F900FBE0F901F9018951F92DE
S1130E900F920FB60F9211240BB60F922F933F931C
S1130EA04F935F936F937F938F939F93AF93BF936E
S1130EB0EF93FF93E0910220F0910320309709F023
S1130EC01995FF91EF91BF91AF919F918F917F9170
S1130ED06F915F914F913F912F910F900BBE0F90A7
S1130EE00FBE0F901F9018951F920F920FB60F927E
S1130EF011240BB60F922F933F934F935F936F93ED
S1130F007F938F939F93AF93BF93EF93FF93E0915E
S1130F100020F0910120309709F01995FF91EF918D
S1130F20BF91AF919F918F917F916F915F914F91FD
S1130F303F912F910F900BBE0F900FBE0F901F90FB
S1130F4018951F93CF93DF931F921F92CDB7DEB7EF
S1130F502FB72A83F8941A81282F392F211588E076
S1130F60380739F461E083E082D964E083E07FD913
S1130F7043C0203488E0380739F462E083E077D94D
S1130F8064E083E074D938C0211589E0380739F466
S1130F9061E084E06CD964E084E069D92DC0203438
S1130FA089E0380739F462E084E061D964E084E0E0
S1130FB05ED922C021158AE0380739F461E085E062
S1130FC056D964E085E053D917C020348AE0380745
S1130FD039F462E085E04BD964E085E048D90CC07F
S1130FE021153B4039F461E086E041D964E086E0B4
S1130FF03ED902C01FBF10C0809149208F3F09F421
S1131000FFCF8FB78983F8949981E8E4F0E2818176
S11310108F5F81839FBF1FBF0F900F90DF91CF9190
S11310201F910895CF92DF92EF92FF92CF93DF93B7
S1131030EC016B01E12CF12C60E874E88EE190E0A6
S1131040A70196018CD2CA01B9012FEF3FEF40E00E
S113105050E085D22115310529F481E08C8321E00B
S113106030E02DC02230310528F482E08C8322E068
S113107030E025C02430310528F483E08C8324E05B
S113108030E01DC02830310528F484E08C8328E04A
S113109030E015C02034310528F485E08C8320E449
S11310A030E00DC02F3F310509F028F486E08C8331
S11310B020E031E004C087E08C8320E034E040E0AD
S11310C050E060E874E88EE190E049D2CA01B901C9
S11310D0A701960144D22D833E832436310518F4AA
S11310E01C821D821E82DF91CF91FF90EF90DF90D2
S11310F0CF9008950F931F93CF93DF93EC01890151
S1131100862F90E08730910508F08AC0FC0188277B
S1131110E250FF4F8F4F45C280E098E08883998367
S1131120E0E4F6E0308181E090E02FEF240F02C08C
S1131130880F991F2A95E2F7832B808371C080E47E
S113114098E088839983E0E4F6E0308181E090E0E0
S113115023E0240F02C0880F991F2A95E2F7832BFE
S113116080835EC080E099E088839983E0E6F6E0BE
S1131170308181E090E02FEF240F02C0880F991F87
S11311802A95E2F7832B80834BC080E499E088831F
S11311909983E0E6F6E0308181E090E023E0240FDB
S11311A002C0880F991F2A95E2F7832B808338C0E9
S11311B080E09AE088839983E0E8F6E0308181E07A
S11311C090E02FEF240F02C0880F991F2A95E2F7B1
S11311D0832B808325C080E49AE088839983E0E8A8
S11311E0F6E0308181E090E023E0240F02C0880F14
S11311F0991F2A95E2F7832B808312C080E09BE03D
S113120088839983E0EAF6E0308181E090E02FEF73
S1131210240F02C0880F991F2A95E2F7832B80833D
S11312204A83423061F018F4413031F010C0433049
S113123049F0443051F00BC080E18B8308C080E258
S11312408B8305C080E48B8302C080E88B83888114
S1131250998177DEE881F9818181887F8360818348
S11312601D821E821C82E881F9818081807F8083B7
S1131270B801CE01D7DEDF91CF911F910F91089570
S1131280CF93DF93EC012D813E81A62FB0E091D165
S113129024E630E040E050E062D18A81E881F981BF
S11312A0E6FD17C0823061F018F4813031F01BC0C4
S11312B0833049F0843051F016C020AF31AF13C0F1
S11312C022AF33AF10C024AF35AF0DC026AF37AF58
S11312D00AC0813019F0823021F005C020AF31AF4F
S11312E002C022AF33AF8D819E81E881F98186A34C
S11312F097A38B81E881F981E6FD04C09181892B54
S1131300818304C091818073892B8183E881F98171
S11313108081807F9C81892B8083DF91CF91089588
S1131320CF93DF93FC0120E030E0C62FD0E0DE0154
S1131330022E02C0B595A7950A94E2F7A0FD508B42
S11313402F5F3F4F31962830310589F740FF0AC09F
S113135041FF03C0FC01658302C0FC016683FC01FC
S1131360618302C0FC016283DF91CF91089543E061
S113137050E061E080EE97E0D3DF43E050E062E0CC
S113138080EE97E0CDDF43E050E060E180E696E058
S1131390C7DF41E050E460E280E696E0C1DF40E070
S11313A05BE160E280E896E0BBDF40E05BE162E0A5
S11313B080EA96E0B5DF40E05BE164E080EA96E035
S11313C0AFDF43E050E062E080E696E0A9DF43E06F
S11313D050E068E080E696E0A3DF43E050E068E098
S11313E080EA96E09DDF43E050E061E080E696E02D
S11313F097DF43E050E068E080E096E091DF41E071
S113140050E060E180E896E08BDF43E050E062E08A
S113141080E696E085DF43E050E068E080E696E011
S11314207FDF40E050E064E080E696E079DF43E06F
S113143050E060E180EA96E073DF40E050E061E074
S113144080E096E06DDF40E050E064E080E096E00C
S113145067DF40E050E062E080E296E061DF43E075
S113146050E068E080E496E05BDF40E050E064E058
S113147080E496E055DF43E050E068E080E696E0E3
S11314804FDF40E050E064E080E696E049DF43E06F
S113149050E068E080E896E043DF40E050E064E03C
S11314A080E896E03DCF089504C061507109810938
S11314B091096115710581059105B9F70895CF93D7
S11314C0DF93CDB7DEB76C97CDBFDEBF0E94270197
S11314D04EDF24EF31E041E060E0CE0101960ADE08
S11314E024EF31E042E060E0CE01089603DE24EF11
S11314F031E043E060E0CE010F96FCDD24EF31E003
S113150044E060E0CE014696F5DD6AE0CE01019646
S1131510B7DE6EE1CE010896B3DE6CE3CE010F9622
S1131520AFDE60E5CE014696ABDE14E6612FCE0158
S11315300F96A6DE68EE73E080E090E0B5DF115010
S1131540A8F710E0612FCE010F969ADE68EE73E0E3
S113155080E090E0A9DF1F5F1536A1F7E6CFA1E296
S11315601A2EAA1BBB1BFD010DC0AA1FBB1FEE1F19
S1131570FF1FA217B307E407F50720F0A21BB30B64
S1131580E40BF50B661F771F881F991F1A9469F7E0
S113159060957095809590959B01AC01BD01CF013C
S11315A00895EE0FFF1F881F8BBF0790F691E02D63
S11315B01994A29FB001B39FC001A39F700D811D18
S11315C01124911DB29F700D811D1124911D089548
S10715D0F894FFCFB9
S9030000FC
