:1000000046C2000064C2000062C2000060C200007C
:100010005EC200005CC200005AC2000058C200006C
:1000200056C2000054C2000052C2000050C200007C
:100030004EC200004CC200004AC2000048C200008C
:1000400046C2000044C2000042C2000040C200009C
:100050003EC200003CC200003AC2000038C20000AC
:1000600036C2000034C2000032C2000030C20000BC
:100070002EC200002CC200002AC2000028C20000CC
:1000800026C2000024C2000022C2000020C20000DC
:100090001EC200001CC200001AC200000C946C0AB0
:1000A0000C949E0A0C94D00A0C94020B10C200000F
:1000B0000EC200000CC200000AC2000008C200000C
:1000C00006C2000004C2000002C2000000C200001C
:1000D000FEC10000FCC10000FAC10000F8C1000030
:1000E000F6C10000F4C10000F2C10000F0C1000040
:1000F000EEC10000ECC10000EAC10000E8C1000050
:10010000E6C10000E4C10000E2C10000E0C100005F
:10011000DEC10000DCC10000DAC100000C94A409BB
:100120000C94D6090C94080A0C943A0AD0C1000029
:10013000CEC10000CCC10000CAC10000C8C100008F
:10014000C6C10000C4C10000C2C10000C0C100009F
:10015000BEC10000BCC10000BAC10000B8C10000AF
:10016000B6C10000B4C10000B2C10000B0C10000BF
:10017000AEC10000ACC10000AAC10000A8C10000CF
:10018000A6C10000A4C10000A2C10000A0C10000DF
:100190009EC100009CC100009AC1000098C10000EF
:1001A00096C1000094C1000092C1000090C10000FF
:1001B0008EC100008CC100008AC1000088C100000F
:1001C00086C1000084C1000082C1000080C100001F
:1001D0007EC100007CC100007AC1000078C100002F
:1001E00076C1000074C1000072C1000070C100003F
:1001F0006EC100006CC100006AC100000000000078
:10020000000000202020202000205050500000003E
:10021000005050F850F850502078A07028F020C0BE
:10022000C810204098186090A040A89068602040B6
:10023000000000001020404040201040201010100E
:100240002040005020F8205000002020F8202000FE
:1002500000000000602040000000F80000000000E6
:10026000000000606000081020408000708898A89E
:10027000C8887020602020202070708808102040DE
:10028000F8F810201008887010305090F81010F80E
:1002900080F008088870304080F0888870F8081076
:1002A00020404040708888708888707088887808FE
:1002B00010600060600060600000606000602040CE
:1002C000081020402010080000F800F800008040CE
:1002D0002010204080708808102000207088086856
:1002E000A8A87070888888F88888F08888F088883E
:1002F000F070888080808870E09088888890E0F82E
:100300008080F08080F8F88080E080808070888035
:1003100080988870888888F88888887020202020B5
:100320002070381010101090608890A0C0A09088A5
:10033000808080808080F888D8A88888888888888D
:10034000C8A898888870888888888870F08888F01D
:1003500080808070888888A89068F08888F0A09055
:1003600088788080700808F0F820202020202088DD
:1003700088888888887088888888885020888888B5
:10038000A8A8D8888888502050888888885020203D
:100390002020F80810204080F83820202020203825
:1003A00000804020100800E02020202020E0205085
:1003B0008800000000000000000000F8402010004D
:1003C000000000000070087888788080B0C88888B5
:1003D000F00000708080887008086898888878002D
:1003E000007088F88070304840E04040400000785D
:1003F000887808308080B0C88888882000602020F5
:1004000020701000301010906040404850605048FC
:10041000602020202020700000D0A8A8888800003C
:10042000B0C8888888000070888888700000F088CC
:10043000F08080000068987808080000B0C88080CC
:1004400080000070807008F04040E040404830007C
:100450000088888898680000888888502000008874
:1004600088A8A8500000885020508800008888780C
:1004700008700000F8102040F810202040202010C4
:100480002020202020202040202010202040112447
:100490001FBECFEFCDBFDFE5DEBF00E00CBF10E237
:1004A000A0E0B0E2ECE2F6E200E00BBF02C0079091
:1004B0000D92A633B107D9F722E2A6E3B0E201C05C
:1004C0001D92A634B207E1F7D3D00C94141398CD43
:1004D0004F925F926F927F928F929F92AF92BF9254
:1004E000CF92DF92EF92FF920F931F93CF93DF9300
:1004F000CDB7DEB7A197CDBFDEBF7C01D62E8A0176
:10050000BA0180E090E00E94240F2B013C0129E415
:100510003DE940E85CE30E94B20F2CE732EF40E394
:100520005CE30E948F0E4B015C010E94F80E633069
:1005300018F0812C912C5401053A1140B0F021E8BB
:1005400036E242E45DEBC301B2010E94B20F23E345
:1005500033E345E552E40E948F0E0E94F30E862F8E
:10056000660F990BAA0BBB0B15C02DE231E24FE9C8
:100570005DEBC301B2010E94B20F23E333E342E813
:1005800052E40E948F0E0E94F30E862F660F990B85
:10059000AA0BBB0B80933620909337208091362096
:1005A000909137209F938F938DE090E29F938F934C
:1005B0001F926894CC24C5F8CF928E010F5F1F4F15
:1005C0001F930F930E94371020E030E240E060E07C
:1005D000C8011ED520E030E048EC52E4C501B4016A
:1005E0000E94B20F0E94F80E89E2689F812D1124AB
:1005F00082958F7094E6899F601911241F926F93E2
:10060000C501B4010E94F80E1F926F9380E290E240
:100610009F938F931F92CF921F930F930E94371037
:1006200020E030E248E060E0C801F2D48FB789A34F
:10063000F89499A1F70180816D2D660F660F682BE4
:1006400060839FBFCDBFDEBFA196CDBFDEBFDF9170
:10065000CF911F910F91FF90EF90DF90CF90BF90BF
:10066000AF909F908F907F906F905F904F90089584
:10067000CF93DF93CDB7DEB72C97CDBFDEBF8DD53F
:1006800048D2ECE3F2E210821182128213821482C9
:1006900011E0158387E08093A200789445D380E130
:1006A00080938506BE016F5F7F4F80E492E00E94D9
:1006B0009A0BAE01485F5F4F61E080E492E00E94D8
:1006C0001E0C9A818B818F7824E02D83917E94611A
:1006D0009A831C8281618B83BE016F5F7F4F80E4B0
:1006E00092E0C2D768E672E080E492E0A5D5188770
:1006F00088E089878A85807F81608A87AE01485F2C
:100700005F4F61E080E492E00E94D30B80E492E0CE
:10071000EFD58FB78C87F8949C85E0E4F2E0808178
:10072000846080839FBF4CE352E228E430E0F89479
:10073000DA018C91811109C0ADE3B2E2E0E0EF5F34
:100740008D918823E1F3E11102C07894F0CFD901B3
:100750008C91F0E0EA5FFF4D817F9081892B8C9333
:100760008C9181608C9378948895F90180818E7F3B
:100770008083DDCF04C06150710981099109611541
:10078000710581059105B9F70895BF92CF92DF9267
:10079000EF92FF920F931F93CF93DF931F92CDB7EA
:1007A000DEB700E016E06894FF24F3F8F801F68263
:1007B0006EE070E080E090E0DDDFF801F5826EE051
:1007C00070E080E090E0D6DF0F2EFBE2BF2EF02D30
:1007D000B98280EA99E06CD4C12CD12C760100E476
:1007E00012E42FE030E043E0BE016F5F7F4F80EA0C
:1007F00099E08DD400E616E0FF24F394F801F68228
:10080000B982BE016F5F7F4F80EA99E09AD4F80108
:10081000F682E0EAF9E0818185FFFDCF80EA8093EE
:10082000A009E0EAF9E0818186FFFDCFE0EAF9E086
:1008300080E481838081BE016F5F7F4F80EA99E011
:1008400096D48BE28983BE016F5F7F4F80EA99E087
:1008500078D481E080936606E0EAF9E0818185FF43
:10086000FDCF86EA8093A009E0EAF9E0818186FF66
:10087000FDCFE0EAF9E080E481838081BE016F5F13
:100880007F4F80EA99E073D48BE28983BE016F5F6A
:100890007F4F80EA99E055D481E080936606E0EAD4
:1008A000F9E0818185FFFDCF88EC8093A009E0EA23
:1008B000F9E0818186FFFDCFE0EAF9E080E4818301
:1008C0008081BE016F5F7F4F80EA99E050D48BE258
:1008D0008983BE016F5F7F4F80EA99E032D481E067
:1008E00080936606E0EAF9E0818185FFFDCF82EA28
:1008F0008093A009E0EAF9E0818186FFFDCFE0EA7C
:10090000F9E080E481838081BE016F5F7F4F80EAE0
:1009100099E02DD48BE28983BE016F5F7F4F80EA1F
:1009200099E00FD481E080936606E0EAF9E08181E6
:1009300085FFFDCF8FE28093A009E0EAF9E0818195
:1009400086FFFDCFE0EAF9E080E481838081BE018B
:100950006F5F7F4F80EA99E00AD48BE28983BE0102
:100960006F5F7F4F80EA99E0ECD381E08093660669
:10097000E0EAF9E0818185FFFDCF88EF8093A0094F
:10098000E0EAF9E0818186FFFDCFE0EAF9E080E46A
:1009900081838081BE016F5F7F4F80EA99E0E7D35A
:1009A0008BE28983BE016F5F7F4F80EA99E0C9D3F4
:1009B00081E080936606E0EAF9E0818185FFFDCF62
:1009C0001092A009E0EAF9E0818186FFFDCFE0EA1C
:1009D000F9E080E481838081BE016F5F7F4F80EA10
:1009E00099E0C5D38BE28983BE016F5F7F4F80EAB8
:1009F00099E0A7D381E080936606E0EAF9E081817F
:100A000085FFFDCF81E28093A009E0EAF9E08181D2
:100A100086FFFDCFE0EAF9E080E481838081BE01BA
:100A20006F5F7F4F80EA99E0A2D38BE28983BE019A
:100A30006F5F7F4F80EA99E084D381E08093660600
:100A4000E0EAF9E0818185FFFDCF81E88093A0098C
:100A5000E0EAF9E0818186FFFDCFE0EAF9E080E499
:100A600081838081BE016F5F7F4F80EA99E07FD3F1
:100A70008BE28983BE016F5F7F4F80EA99E061D38B
:100A800081E080936606E0EAF9E0818185FFFDCF91
:100A900089E38093A009E0EAF9E0818186FFFDCF38
:100AA000E0EAF9E080E481838081BE016F5F7F4FDF
:100AB00080EA99E05CD38BE28983BE016F5F7F4F50
:100AC00080EA99E03ED381E080936606E0EAF9E0AF
:100AD000818185FFFDCF8FEA8093A009E0EAF9E0EC
:100AE000818186FFFDCFE0EAF9E080E481838081A7
:100AF000BE016F5F7F4F80EA99E039D30F90DF919D
:100B0000CF911F910F91FF90EF90DF90CF90BF900A
:100B10000895CF93DF931F921F92CDB7DEB78FEF6B
:100B200080937000809371008093720080937300B3
:100B30008093740080937500809376006CE081E46C
:100B400090E0C7D68FB78A83F8949A81E0E5F0E009
:100B50008081826080839FBF818181FFFDCF61E0C2
:100B600080E490E0B6D68FB78983F8949981E0E568
:100B7000F0E080818E7F80839FBF0F900F90DF9188
:100B8000CF910895CF93DF931F92CDB7DEB79FB774
:100B90009983F8949981E82FF0E0E059FF4F609530
:100BA0008081682360839FBF0F90DF91CF9108956C
:100BB000CF93DF931F92CDB7DEB79FB79983F89499
:100BC0009981E82FF0E0E059FF4F8081682B608326
:100BD0009FBF0F90DF91CF910895FF920F931F93C6
:100BE000CF93DF931F92CDB7DEB7082FF62E142FC9
:100BF0001AD10F70006B8BE28983BE016F5F7F4F4C
:100C000080EA99E09ED281E080936606E0EAF9E00E
:100C1000918195FFFDCF0093A009E0EAF9E0818181
:100C200086FFFDCFE0EAF9E080E481838081BE01A8
:100C30006F5F7F4F80EA99E09AD20F2D0F77029570
:100C40000F7000618BE28983BE016F5F7F4F80EA86
:100C500099E077D281E080936606E0EAF9E081814D
:100C600085FFFDCF0093A009E0EAF9E0818186FFCE
:100C7000FDCFE0EAF9E080E481838081BE016F5F0F
:100C80007F4F80EA99E073D20F2D0F708BE289833A
:100C9000BE016F5F7F4F80EA99E053D281E080937D
:100CA0006606E0EAF9E0818185FFFDCF0093A009A7
:100CB000E0EAF9E0818186FFFDCFE0EAF9E080E437
:100CC00081838081BE016F5F7F4F80EA99E04FD2C0
:100CD0008BE28983BE016F5F7F4F80EA99E031D25A
:100CE00081E080936506E0EAF9E0818185FFFDCF30
:100CF0001093A009E0EAF9E0818186FFFDCFE0EAE8
:100D0000F9E080E48183808181E080936606BE0102
:100D10006F5F7F4F80EA99E02AD20F90DF91CF91E9
:100D20001F910F91FF9008950F931F93CF93DF931F
:100D30001F92CDB7DEB788E390E270D026DD8BE25C
:100D40008983BE016F5F7F4F80EA99E0FAD181E02D
:100D500080936606E0EAF9E0818185FFFDCF80E4BB
:100D60008093A009E0EAF9E0818186FFFDCFE0EA07
:100D7000F9E080E481838081BE016F5F7F4F80EA6C
:100D800099E0F5D100E00AC040E0612F802F25DF17
:100D90001F5F1038C9F70F5F043011F010E0F4CF77
:100DA0000F90DF91CF911F910F910895FF920F93B4
:100DB0001F93CF93DF9388234CF1603238F5D42F03
:100DC000C82FF62EF694F694F69470E088E0F89E1C
:100DD00060197109112481E090E08C0102C0000FBC
:100DE000111F6A95E2F76C2F8F2D2BD0D13021F097
:100DF00028F0D23031F006C0802B04C0009580234B
:100E000001C08027482F6C2F8F2DE7DEDF91CF9117
:100E10001F910F91FF90089514C008958093382278
:100E2000909339220895209138223091392290E808
:100E3000899F200D311D1124F901E60FF11D40831A
:100E40000895209138223091392290E8899F200D11
:100E5000311D1124F901E60FF11D80810895FF92E3
:100E60000F931F93CF93DF93E42FF0E0E80FF11D72
:100E7000E138F1051CF0C0E84C2F481B442309F46D
:100E80004AC0D62FD695D695D69570E098E0D99FD2
:100E9000601971091124E1E0F0E0DF0102C0AA0F3E
:100EA000BB1F6A95E2F7FA2E213021F098F022302C
:100EB00019F131C0C42F1FEF180F012F0C0F602F35
:100EC0008D2FAADF4F2D482B602F8D2F86DEC1502E
:100ED000A1F721C0C42F1FEF180FFA2EF094012F95
:100EE0000C0F602F8D2F98DF4F2D4823602F8D2FF3
:100EF00074DEC150A1F70FC0C42F1FEF180F012FD0
:100F00000C0F602F8D2F88DF4F2D4827602F8D2FDE
:100F100064DEC150A1F7DF91CF911F910F91FF9037
:100F20000895FF920F931F93CF93DF93222369F0CD
:100F3000F42E182FC22FDFEFD60F6D2F6C0F202F3E
:100F40004F2D812F8CDFC150C1F7DF91CF911F91C1
:100F50000F91FF900895AF92BF92CF92DF92EF92E0
:100F6000FF920F931F93CF93DF93C82FE62EB42EDB
:100F7000690100E0F901248143816B2D8E2DD1DFC1
:100F8000F6018081811139C08381282F269526950D
:100F90002695877009F02F5FF601A4808C2F90E0D2
:100FA0003581831B91092A9D90011124829FA00104
:100FB000839F500D929F500D112401811281040FC7
:100FC000151FF601F380FF20A1F0D0E0C0E08E2DC8
:100FD0008C0F9C2F977021F4F801D4910F5F1F4F55
:100FE000DD231CF441E06B2DE1DEDD0FCF5FFC1251
:100FF000EECFB394AA94A110E4CFDF91CF911F91CB
:101000000F91FF90EF90DF90CF90BF90AF90089539
:10101000DF92EF92FF920F931F93CF93DF93D62E21
:10102000042F7901EC01162F89918A3031F4F701F0
:1010300084818F5F080F1D2D09C08D3039F0970115
:10104000402F612F88DFF7018381180F888181117C
:10105000EBCFDF91CF911F910F91FF90EF90DF9039
:101060000895CF93DF93FC0120E030E0C62FD0E05D
:10107000DE01022E02C0B595A7950A94E2F7A0FD05
:10108000508B2F5F3F4F31962830310589F740FF55
:101090000AC041FF03C0FC01658302C0FC016683F6
:1010A000FC01618302C0FC016283DF91CF9108954E
:1010B000803A28E0920721F460E183E063CD08954F
:1010C000803B28E0920721F460E283E05BCD089545
:1010D000803A29E0920721F460E184E053CD08953D
:1010E000803B29E0920721F460E284E04BCD089533
:1010F000803A2AE0920721F460E185E043CD08952B
:10110000803A9B4019F460E186E03CCD08950F934E
:101110001F93CF93DF9300D000D0CDB7DEB7098304
:101120001A832B833C834D831E82BE016F5F7F4FEA
:1011300011D42696CDBFDEBFDF91CF911F910F91C5
:101140000895FB018081E82FE695E695E69540E25B
:10115000E49FF0011124FA5F877021E030E0A901DB
:1011600002C0440F551F8A95E2F746830895FB019C
:101170008081E82FE695E695E69540E2E49FF00150
:101180001124FA5F877021E030E0A90102C0440F0A
:10119000551F8A95E2F74583089543E050E061E0EA
:1011A00080EE97E05EDF43E050E062E080EE97E0A3
:1011B00058DF43E050E060E180E696E052DF41E036
:1011C00050E460E280E696E04CDF40E05BE160E204
:1011D00080E896E046DF40E05BE162E080EA96E08E
:1011E00040DF40E05BE164E080EA96E03ADF43E024
:1011F00050E062E080E696E034DF43E050E068E0F3
:1012000080E696E02EDF43E050E068E080EA96E07A
:1012100028DF43E050E061E080E696E022DF43E033
:1012200050E068E080E096E01CDF41E050E060E1E3
:1012300080E896E016CF0895CF93DF931F92CDB745
:10124000DEB72FB72983F8944981282F392F21152C
:1012500082E0380729F4609344227093452207C046
:101260002034324021F460934222709343224FBFD6
:101270000F90DF91CF910895811522E0920761F4DC
:1012800080913B2291E0980F90933B22811112C0F4
:1012900062E081E077CC08958034924059F48091E7
:1012A0003A2291E0980F90933A22811103C062E0B4
:1012B00082E068CC0895811522E0920759F480916C
:1012C0003B22815080933B22811111C062E081E07A
:1012D0006FCC08958034924051F480913A2281502D
:1012E00080933A22811103C062E082E061CC0895CC
:1012F000EF92FF921F93CF93DF931F921F92CDB770
:10130000DEB77C018FB78983F8941981C701B4DFF8
:10131000F7018081816080831FBF80913D228F3FD4
:1013200009F4FFCF8FB78A83F8949A81ECE3F2E255
:1013300081818F5F81839FBF0F900F90DF91CF914D
:101340001F91FF90EF9008951F920F920FB60F928A
:1013500011240BB60F922F933F934F935F936F938C
:101360007F938F939F93AF93BF93EF93FF9340919E
:10137000240250912502E0914422F091452261E03F
:1013800080E092E01995FF91EF91BF91AF919F910D
:101390008F917F916F915F914F913F912F910F901E
:1013A0000BBE0F900FBE0F901F9018951F920F92BB
:1013B0000FB60F9211240BB60F922F933F934F93BA
:1013C0005F936F937F938F939F93AF93BF93EF93AD
:1013D000FF9340912C0250912D02E0914422F09114
:1013E000452262E080E092E01995FF91EF91BF9174
:1013F000AF919F918F917F916F915F914F913F91AD
:101400002F910F900BBE0F900FBE0F901F9018954D
:101410001F920F920FB60F9211240BB60F922F93BB
:101420003F934F935F936F937F938F939F93AF936C
:10143000BF93EF93FF934091340250913502E091B6
:101440004422F091452264E080E092E01995FF91FA
:10145000EF91BF91AF919F918F917F916F915F912C
:101460004F913F912F910F900BBE0F900FBE0F9099
:101470001F9018951F920F920FB60F9211240BB662
:101480000F922F933F934F935F936F937F938F931D
:101490009F93AF93BF93EF93FF9340913C02509182
:1014A0003D02E0914422F091452268E080E092E024
:1014B0001995FF91EF91BF91AF919F918F917F917E
:1014C0006F915F914F913F912F910F900BBE0F90B5
:1014D0000FBE0F901F9018951F920F920FB60F928C
:1014E00011240BB60F922F933F934F935F936F93FB
:1014F0007F938F939F93AF93BF93EF93FF9340910D
:10150000640250916502E0914222F091432261E031
:1015100080E492E01995FF91EF91BF91AF919F9177
:101520008F917F916F915F914F913F912F910F908C
:101530000BBE0F900FBE0F901F9018951F920F9229
:101540000FB60F9211240BB60F922F933F934F9328
:101550005F936F937F938F939F93AF93BF93EF931B
:10156000FF9340916C0250916D02E0914222F09104
:10157000432262E080E492E01995FF91EF91BF91E0
:10158000AF919F918F917F916F915F914F913F911B
:101590002F910F900BBE0F900FBE0F901F901895BC
:1015A0001F920F920FB60F9211240BB60F922F932A
:1015B0003F934F935F936F937F938F939F93AF93DB
:1015C000BF93EF93FF934091740250917502E091A5
:1015D0004222F091432264E080E492E01995FF9169
:1015E000EF91BF91AF919F918F917F916F915F919B
:1015F0004F913F912F910F900BBE0F900FBE0F9008
:101600001F9018951F920F920FB60F9211240BB6D0
:101610000F922F933F934F935F936F937F938F938B
:101620009F93AF93BF93EF93FF9340917C025091B0
:101630007D02E0914222F091432268E080E492E052
:101640001995FF91EF91BF91AF919F918F917F91EC
:101650006F915F914F913F912F910F900BBE0F9023
:101660000FBE0F901F901895BF92CF92DF92EF920E
:10167000FF920F931F93CF93DF931F92CDB7DEB7E7
:101680008C017B01811522E0920771F461E270E028
:1016900082E025D1C82ED12C60E270E082E01FD11B
:1016A000DC2CCC24C82A10C080349240C1F565E2FD
:1016B00070E082E014D1C82ED12C64E270E082E0A8
:1016C0000ED1DC2CCC24C82A8FB78983F894B9803A
:1016D000C801D2DDF801808192E09083C486D5866E
:1016E000F70125813681F801208F318FF701928132
:1016F000F8019283F7019481F8019483F7019381B3
:10170000F8019383F7019181F80191838170F701CA
:101710009081892BF8018083C801CDDDBFBE0F9079
:10172000DF91CF911F910F91FF90EF90DF90CF90BD
:10173000BF900895DF92EF92FF920F931F93CF9384
:10174000DF931F92CDB7DEB78C017B018FB7898302
:10175000F894D980C80190DDF8018081807CF70180
:101760008083F801808D918DF70185839683F80140
:101770008281F7018283F8018481F7018483F80173
:101780008381F7018383F8018181F7018183C80197
:1017900092DDDFBE0F90DF91CF911F910F91FF90EF
:1017A000EF90DF900895AF92BF92CF92DF92EF92C9
:1017B000FF920F931F93CF93DF931F92CDB7DEB7A6
:1017C0006C01B62E7A01862F837029F4962F969598
:1017D000969582E002C0962F80E090FF8F5F860191
:1017E000005E1F4F98E0899F000D111D11248FB7D7
:1017F0008983F894A980C6013FDDF7018081F80153
:101800008083F7018281F8018283F7018181F801E9
:101810008183B0FE04C0F7018381F8018683C6018D
:101820004ADDAFBE0F90DF91CF911F910F91FF90D6
:10183000EF90DF90CF90BF90AF900895AF92BF929E
:10184000CF92DF92EF92FF920F931F93CF93DF938C
:101850001F92CDB7DEB76C01B62E7A01862F83704A
:1018600029F4962F9695969582E002C0962F80E0F7
:1018700090FF8F5F8601005E1F4F98E0899F000DEB
:10188000111D11248FB78983F894A980C601F4DC57
:10189000F8018081F7018083F8018281F70182835A
:1018A000F8018181F7018183B0FE04C0F8018681CF
:1018B000F7018383C601FFDCAFBE0F90DF91CF91AC
:1018C0001F910F91FF90EF90DF90CF90BF90AF905E
:1018D00008951BBEFC0128ED24BF6083089540914C
:1018E000CA01E62FF72F8093CA0184914093CA0161
:1018F0000895CF92DF92EF92FF920F931F93CF93B1
:10190000DF93EC01D901C801B695A7959795879506
:10191000481759076A077B0770F46A017B01CC0CF2
:10192000DD1CEE1CFF1CC901B801A70196017DD387
:101930002150310902C020E030E0832F8F708F8367
:101940002E83DF91CF911F910F91FF90EF90DF9049
:10195000CF900895DF92EF92FF920F931F93CF9352
:10196000DF931F92CDB7DEB77C018B01009709F49E
:10197000B2C1803C910521F460E180E003D9ABC1A4
:1019800080E8E81681E0F80621F462E080E0FAD809
:10199000A2C1E114E1E0FE0621F461E080E0F2D8AA
:1019A0009AC1F0E8EF16F3E0FF0621F461E081E070
:1019B000E9D891C130E9E31633E0F30621F461E0A0
:1019C00082E0E0D888C1E11482E0F80621F462E008
:1019D00081E0D8D880C1E0E4EE16E2E0FE0621F412
:1019E00062E082E0CFD877C1F0E2EF16F3E0FF06C5
:1019F00021F464E082E0C6D86EC1E11438E0F30659
:101A000021F461E083E0BED866C1E11489E0F80604
:101A100021F461E084E0B6D85EC1E114EAE0FE069C
:101A200021F461E085E0AED856C1E114FBE0FF0689
:101A300021F461E086E0A6D84EC130E4E31638E038
:101A4000F30621F462E083E09DD845C180E4E81606
:101A500089E0F80621F462E084E094D83CC1E0E437
:101A6000EE16EAE0FE0621F462E085E08BD833C191
:101A7000F0E9EF16F8E0FF0621F464E083E082D895
:101A80002AC130E9E31639E0F30621F464E084E08A
:101A900079D821C180E9E8168AE0F80621F464E0EB
:101AA00085E070D818C1E0E9EE16EBE0FE0621F4FF
:101AB00064E086E067D80FC1F0ECEF16F8E0FF06AF
:101AC00021F468E083E05ED806C130ECE31639E02B
:101AD000F30621F468E084E055D8FDC080EAE816FA
:101AE00088E0F80661F460E183E04CD8E0EAF8E0D1
:101AF00084818F7E8483F801248122504CC0F0EAD7
:101B0000EF16F9E0FF0621F460E184E03BD8E3C082
:101B100030EAE3163AE0F30621F460E185E032D8DA
:101B2000DAC080EAE8168BE0F80621F460E186E08E
:101B300029D8D1C0E0EBEE16E8E0FE0621F460E221
:101B400083E020D8C8C0F0EBEF16F9E0FF0621F4DF
:101B500060E284E017D8BFC030E8E31634E0F30653
:101B600021F460E483E00ED8B6C080EAE81684E091
:101B7000F80621F460E485E005D8ADC0F701848162
:101B80008F7E8483FB0124812250C701F0EAEF1687
:101B9000F8E0FF0649F480914E0684FDA5C00F2EA3
:101BA000F1E1DF2EF02DA4C0803B38E0930791F0E7
:101BB000803AE9E09E0749F430916E0634FD9BC0FF
:101BC0000F2EF9E1DF2EF02D16C0803BF9E09F07C4
:101BD000F1F004C00F2EF5E1DF2EF02D803A3AE04F
:101BE000930749F480918E0684FD8AC00F2EF1E29E
:101BF000DF2EF02D15C0803A9B4091F48091AE0607
:101C000084FD0AC00F2EF9E2DF2EF02D09C00F2E41
:101C1000FDE1DF2EF02D04C00F2EFDE2DF2EF02DB2
:101C2000ED2DE695E695E69530E2E39FF00111246F
:101C3000FA5F3D2D377081E090E0032E02C0880FDF
:101C4000991F0A94E2F78183223010F040E001C02E
:101C500040E4DF015096A30FB11D9FB79983F8941C
:101C600039812C9127702C939C91942B9C933FBF8E
:101C70008583F7018581806C8583F80184818D7F60
:101C8000813029F4F70185818260858304C0F701E2
:101C900085818D7F8583F8018581882329F0F7016F
:101CA00085818460858304C0F70185818B7F85836E
:101CB000F801408151816281738100E012E12AE7DD
:101CC00030E0C70116DEF701848188608483848157
:101CD000806184831AC0F70184818F7E8483F80138
:101CE00024812250C70160CF0F2EF5E1DF2EF02DA9
:101CF00080EA98E06ACF0F2EFDE1DF2EF02D7BCF3A
:101D00000F2EF5E2DF2EF02D8BCF0F90DF91CF91CC
:101D10001F910F91FF90EF90DF9008955058BB27CF
:101D2000AA270ED0E5C0D6D030F0DBD020F031F4B9
:101D30009F3F11F41EF4CBC00EF4E095E7FBC1C049
:101D4000E92FE7D080F3BA17620773078407950776
:101D500018F071F49EF5FFC00EF4E0950B2EBA2F2B
:101D6000A02D0B01B90190010C01CA01A0011124A1
:101D7000FF27591B99F0593F50F4503E68F11A164D
:101D8000F040A22F232F342F4427585FF3CF4695DE
:101D900037952795A795F0405395C9F77EF41F1600
:101DA000BA0B620B730B840BBAF09150A1F0FF0FCA
:101DB000BB1F661F771F881FC2F70EC0BA0F621FB6
:101DC000731F841F48F4879577956795B795F795A6
:101DD0009E3F08F0B3CF9395880F08F09927EE0F38
:101DE00097958795089504D06894B111B5C008956A
:101DF00098D088F09F5790F0B92F9927B751A0F04D
:101E0000D1F0660F771F881F991F1AF0BA95C9F78E
:101E100012C0B13081F09FD0B1E008959CC0672F0F
:101E2000782F8827B85F39F0B93FCCF3869577953E
:101E30006795B395D9F73EF4909580957095619527
:101E40007F4F8F4F9F4F0895E89409C097FB3EF452
:101E500090958095709561957F4F8F4F9F4F9923F7
:101E6000A9F0F92F96E9BB279395F6958795779575
:101E70006795B795F111F8CFFAF4BB0F11F460FF35
:101E80001BC06F5F7F4F8F4F9F4F16C0882311F08D
:101E900096E911C0772321F09EE8872F762F05C0A1
:101EA000662371F096E8862F70E060E02AF09A953C
:101EB000660F771F881FDAF7880F9695879597F931
:101EC000089597F99F6780E870E060E008959FEFBC
:101ED00080EC089500240A941616170618060906C1
:101EE000089500240A941216130614060506089590
:101EF000092E0394000C11F4882352F0BB0F40F418
:101F0000BF2B11F460FF04C06F5F7F4F8F4F9F4F57
:101F1000089557FD9058440F551F59F05F3F71F0D9
:101F20004795880F97FB991F61F09F3F79F0879540
:101F30000895121613061406551FF2CF4695F1DFC9
:101F400008C0161617061806991FF1CF8695710559
:101F5000610508940895E894BB2766277727CB018D
:101F600097F908950BD0C4CFB5DF28F0BADF18F089
:101F7000952309F0A6CFABCF1124EECFCADFA0F393
:101F8000959FD1F3950F50E0551F629FF001729F0E
:101F9000BB27F00DB11D639FAA27F00DB11DAA1F2D
:101FA000649F6627B00DA11D661F829F2227B00D7A
:101FB000A11D621F739FB00DA11D621F839FA00D05
:101FC000611D221F749F3327A00D611D231F849F55
:101FD000600D211D822F762F6A2F11249F575040AC
:101FE0008AF0E1F088234AF0EE0FFF1FBB1F661F47
:101FF000771F881F91505040A9F79E3F510570F000
:1020000060CFAACF5F3FECF3983EDCF386957795DF
:102010006795B795F795E7959F5FC1F7FE2B880FFA
:10202000911D9695879597F90895A1E21A2EAA1BFE
:10203000BB1BFD010DC0AA1FBB1FEE1FFF1FA21778
:10204000B307E407F50720F0A21BB30BE40BF50B75
:10205000661F771F881F991F1A9469F760957095FE
:10206000809590959B01AC01BD01CF0108950F9320
:102070001F93CF93DF93CDB7DEB72E97CDBFDEBFD3
:102080000E891F89888D998D26E02C8309831A83F8
:1020900097FF02C080E090E801978D839E83AE0198
:1020A000445E5F4F6A8D7B8DCE01019616D04D81C7
:1020B0005E8157FD0AC02F813885421753070CF403
:1020C0009A01F801E20FF31F10822E96CDBFDEBFFA
:1020D000DF91CF911F910F9108952F923F924F92D0
:1020E0005F926F927F928F929F92AF92BF92CF92A8
:1020F000DF92EF92FF920F931F93CF93DF93CDB7B1
:10210000DEB72B97CDBFDEBF6C017B018A01FC01DE
:1021100016821782838181FFBFC1CE0101963C01E7
:10212000F6019381F70193FD859193FF81917F01E2
:10213000882309F4ADC1853239F493FD859193FF6D
:1021400081917F01853221F4B60190E0D3D1E8CFAF
:10215000912C212C312CFFE1F315D8F08B3279F042
:1021600038F4803279F08332A1F4232D20611DC030
:102170008D3261F0803369F4232D216016C0832DE8
:102180008260382EE32DE4603E2E2AC0F32DF860E5
:102190001DC037FC2DC020ED280F2A3040F08E32B4
:1021A000B9F436FC75C1232D2064322E19C036FED9
:1021B00006C08AE0989E200D1124922E11C0EAE0FC
:1021C0002E9E200D1124222EF32DF0623F2E08C0EA
:1021D0008C3621F4832D8068382E02C0883641F475
:1021E000F70193FD859193FF81917F018111B3CF19
:1021F000982F9F7D9554933028F40C5F1F4F9FE3D9
:1022000099830DC0833631F0833771F0833509F03F
:1022100055C020C0F801808189830E5F1F4F88243C
:102220008394912C530112C02801F2E04F0E511CEF
:10223000F801A080B18036FE03C0692D70E002C0B5
:102240006FEF7FEFC5014BD14C018201F32DFF777A
:102250003F2E15C0280122E0420E511CF801A0803B
:10226000B18036FE03C0692D70E002C06FEF7FEFD2
:10227000C5012AD14C01F32DF0683F2E820133FCB9
:1022800019C0822D90E088169906A0F4B60180E26C
:1022900090E030D12A94F5CFF50137FC859137FED7
:1022A00081915F01B60190E025D121102A9421E0AF
:1022B000821A91088114910479F7E1C0843611F0F3
:1022C000893639F5F80137FE07C060817181828156
:1022D00093810C5F1F4F08C060817181072E000C35
:1022E000880B990B0E5F1F4FF32DFF763F2E97FF44
:1022F00009C090958095709561957F4F8F4F9F4F46
:10230000F0683F2E2AE030E0A30130D1882E8618F5
:1023100044C0853731F4232D2F7EB22E2AE030E0E1
:1023200025C0932D997FB92E8F36C1F018F48835CA
:1023300079F0AEC0803719F0883721F0A9C0E92FB5
:10234000E061BE2EB4FE0DC0FB2DF460BF2E09C0AF
:1023500034FE0AC0292F2660B22E06C028E030E0E5
:1023600005C020E130E002C020E132E0F801B7FE14
:1023700007C060817181828193810C5F1F4F06C00D
:102380006081718180E090E00E5F1F4FA301EED06D
:10239000882E8618FB2DFF773F2E36FE0DC0232D8D
:1023A0002E7FA22E891458F434FE0BC032FC09C0D3
:1023B000832D8E7EA82E05C0B82CA32C03C0B82C6C
:1023C00001C0B92CA4FE0FC0FE01E80DF11D8081F3
:1023D000803321F49A2D997EA92E09C0A2FE06C051
:1023E000B394B39404C08A2D867809F0B394A3FC07
:1023F00010C0A0FE06C0B21480F4280C922C9B18CA
:102400000DC0B21458F4B60180E290E073D0B394DA
:10241000F8CFB21418F42B1802C0982C212CA4FE6B
:102420000FC0B60180E390E065D0A2FE16C0A1FC0B
:1024300003C088E790E002C088E590E0B6010CC0D8
:102440008A2D867851F0A1FE02C08BE201C080E2A5
:10245000A7FC8DE2B60190E04DD0891430F4B601AE
:1024600080E390E047D09A94F8CF8A94F301E80D86
:10247000F11D8081B60190E03DD08110F6CF222081
:1024800009F44ECEB60180E290E034D02A94F7CF22
:10249000F6018681978102C08FEF9FEF2B96CDBF0B
:1024A000DEBFDF91CF911F910F91FF90EF90DF90F2
:1024B000CF90BF90AF909F908F907F906F905F90E4
:1024C0004F903F902F900895FC010590615070400F
:1024D0000110D8F7809590958E0F9F1F0895FC01ED
:1024E0006150704001900110D8F7809590958E0F43
:1024F0009F1F08950F931F93CF93DF93FB012381B9
:1025000021FD03C08FEF9FEF2CC022FF16C0468134
:102510005781248135814217530744F4A081B1814A
:102520009D012F5F3F4F208331838C93268137811C
:102530002F5F3F4F2683378314C08B01EC01FB01D3
:102540000084F185E02D1995892BE1F6D8011696C6
:102550008D919C911797019616968D939C93179742
:10256000CE01DF91CF911F910F910895FA01AA2713
:10257000283051F1203181F1E8946F936E7F6E5FC6
:102580007F4F8F4F9F4FAF4FB1E03ED0B4E03CD074
:10259000670F781F891F9A1FA11D680F791F8A1F57
:1025A000911DA11D6A0F711D811D911DA11D20D0BE
:1025B00009F468943F912AE0269F11243019305D78
:1025C0003193DEF6CF010895462F4770405D419369
:1025D000B3E00FD0C9F7F6CF462F4F70405D4A33B6
:1025E00018F0495D31FD4052419302D0A9F7EACF7E
:1025F000B4E0A6959795879577956795BA95C9F7AD
:1026000000976105710508959B01AC010A2E06949F
:102610005795479537952795BA95C9F7620F731F58
:0C262000841F951FA01D0895F894FFCFA3
:10262C0000FC010607207D000E060C040054656DAD
:10263C0070657261747572653A20253464204300AC
:10264C00566F6C746167653A202534642E253032E0
:06265C0064205644430017
:00000001FF
